:020000040800F2
:100000007026002005010008EF1500080115000802
:10001000ED150008EB010008D335000800000000D2
:100020000000000000000000000000009F19000810
:10003000AD020008000000009D190008BD1900086D
:100040001F0100081F0100081F0100081F01000810
:100050001F0100081F0100081F0100081F01000800
:100060001F0100081F0100081F0100081F010008F0
:100070001F0100081F0100081F0100081F010008E0
:100080001F0100081F0100081F0100081F010008D0
:100090009D3400081F0100081F0100081F0100080F
:1000A0001F0100081F0100081F0100081F010008B0
:1000B0001F0100081F0100081F0100081F010008A0
:1000C0001F0100081F0100081F0100081F01000890
:1000D0001F0100081F0100081F0100081F01000880
:1000E0001F0100081F0100081F010008DFF810D0E1
:1000F00000F03EF80048004715360008AFF30080D6
:10010000702600200648804706480047FEE7FEE7C5
:10011000FEE7FEE7FEE7FEE7FEE7FEE7FEE7FEE7B7
:10012000371A0008ED00000840EA01039B0703D0DE
:1001300009E008C9121F08C0042AFAD203E011F826
:10014000013B00F8013B521EF9D27047D2B201E0E8
:1001500000F8012B491EFBD270470022F6E710B5CC
:1001600013460A4604461946FFF7F0FF204610BD25
:10017000064C074D06E0E06840F0010394E80700F4
:1001800098471034AC42F6D3FFF7B4FF6C36000842
:100190008C36000870B58C1810F8015B15F0070359
:1001A00001D110F8013B2A1106D110F8012B03E010
:1001B00010F8016B01F8016B5B1EF9D12B0705D418
:1001C0000023521E0DD401F8013BFAE710F8013B61
:1001D000CB1A921C03E013F8015B01F8015B521E7D
:1001E000F9D5A142D8D3002070BDFEE700207047AA
:1001F0000020704710B500220449054801F00EFDAB
:100200000449034801F002FD002010BD84080020CD
:100210006C0C00209C04002010B50A460968C8290F
:100220000BD20A4B19800021094B03E0445C5C545B
:10023000491C89B214688C42F8D80146054801F07F
:10024000E5FC044801F0CCFC002010BD00000020BB
:10025000D40300206C0C0020002070470020704761
:1002600070B50C4601281CD10F4DE00701D00122CA
:1002700000E000220821284600F00CF9A00706D56E
:1002800001221021284600F005F9012205E0002294
:100290001021284600F0FEF800222021284600F018
:1002A000F9F8002070BD000000080140704772B6E8
:1002B000FEE700002DE9F84FDFF8B8910024A9F11E
:1002C000040B23460F2709F1040AABF1040EC9E021
:1002D0000125A5402A40AA427DD1674ED1F804C02D
:1002E000ACEB0608B44532D014DCBCF1030F3AD0B5
:1002F00009DCBCF1000F2AD0BCF1010F1CD0BCF10D
:10030000020F31D11DE0BCF1110F17D0BCF1120F5B
:100310002AD119E0B8F5881F19D006DCB8F5803F5E
:1003200015D0B8F5801F1FD111E0B8F5001F0ED011
:10033000B8F5041F18D10AE0CB6815E0CB681B1D87
:1003400012E0CB6808330FE0CB680C330CE08B680D
:100350002BB1012B4FF0080303D0456104E00423C7
:1003600002E0056100E00023FF2A01D8064601E013
:1003700000F104064FEA840501D9A5F12005D6F85D
:10038000008007FA05FC28EA0C0803FA05F548EA9C
:100390000508C6F800804D68ED0062D5374DAE699E
:1003A00046F00106AE61AD6924F0030605F00105D3
:1003B0000095334D06EB050CDCF80850A607360F08
:1003C00007FA06F825EA0805DFF8B880404503D1AA
:1003D0004FF0000817E044E0DFF8AC80404502D160
:1003E0004FF001080FE0DFF8A480404502D14FF044
:1003F000020808E0DFF89880404502D14FF003087A
:1004000001E04FF0040808FA06F848EA0508CCF8BD
:1004100008804D68D9F80060ED024D4601D51643BD
:1004200000E096432E604D68DAF80060AD02554654
:1004300001D5164300E096432E604D68DBF800605E
:10044000AD035D4601D5164300E096432E604D682E
:10045000DEF80060ED03754601D5164300E09643D3
:100460002E60641C0D682A46E5407FF431AFBDE87C
:10047000F88F000008040140000011100010024035
:100480000000014000080140000C01400010014044
:10049000001401400AB1016170470904FBE7000044
:1004A00001488068704700002401002002488168EC
:1004B000027811448160704724010020074810B57C
:1004C000016841F010010160032000F075F80F2071
:1004D00000F006F800F024F8002010BD00200240D3
:1004E00070B50D4D04464FF47A712878B1FBF0F0E9
:1004F0000A490968B1FBF0F000F0EEFF48B9102C92
:1005000007D200222146501E00F036F800206C6011
:1005100070BD012070BD00002401002030010020CA
:100520000C4808B5816941F001018161816901F0E0
:1005300001010091C16941F08051C161C06900F0C1
:10054000805000900448416821F0E06141F0007162
:10055000416008BD0010024000000140002809DB96
:1005600000F01F02012191404009800000F1E020CD
:10057000C0F8001170470000F0B40E4B1B680C4629
:10058000C3F30223C3F10705042D00D90425191D67
:10059000072901D2002300E0DB1E012606FA05F13F
:1005A000491E214099409E40761E16403143F0BCC2
:1005B00003F010B80CED00E0064900F007020868EF
:1005C0004FF6FF03184040EA0220034A1043086038
:1005D000704700000CED00E00000FA0510B50C06B5
:1005E00007D501F0070101EB810100EBC1002830C4
:1005F00005E001EB810100EBC10000F5B47099B298
:1006000032B1012202730181190C4181002010BD19
:1006100000220273C180F9E7704701EB810200EB11
:10062000C202D0F8EC02D26B01F0FDBE01EB8102F8
:1006300000EBC202D0F8EC02D2F87C2101F056BFE8
:1006400070B504460B0601F0070000EB800104EBD7
:10065000C1014FF001024FF0000503D581F82920B8
:10066000283103E081F8695101F5B471087094F8FC
:10067000A802012808D084F8A822206802F0A1FB73
:1006800084F8A852002070BD022070BD70B50446E9
:1006900001F00F006268904201D9012070BD0B0685
:1006A00001F0070000EB800104EBC1014FF00102F3
:1006B0004FF0000503D581F82920283103E081F8A7
:1006C000695101F5B4718D70087094F8A802012881
:1006D00008D084F8A822206802F010FC84F8A85200
:1006E000002070BD022070BD2DE9F05F04685FEA54
:1006F000424C0B788D69B4F850C04FF000064BF6B1
:100700008F7948F2800A48F68F7B48F2C00E4FF48A
:1007100080672AD54FF0020808EBC308C44407EBF2
:100720004C07E45BC4F30904A54203D32D1B8D6180
:1007300001D00BE08E61066836F8235005EA090502
:1007400085F4005545EA0A0526F82350520609D5D6
:100750000D78036833F8252002EA0B0242EA0E0204
:1007600023F8252084B30A8929E04FF0060808EB16
:10077000C308C44407EB4C07E45BC4F30904A54277
:1007800003D32D1B8D6101D00BE08E61066836F816
:10079000235005EA090585F4005545EA0A0526F8BF
:1007A0002350520609D40B78056835F8232002EA55
:1007B0000B0242EA0E0225F823202CB14A8949692E
:1007C0000068234602F074FE2046BDE8F09F2DE944
:1007D000F05F054600680C465FEA426C16468B697E
:1007E0002278B0F850C048F68F774CF280094FF469
:1007F000004B4FF6FF7E4FF4806A4FF0000172D538
:100800004FF0020808EBC208E0440AEB480C30F84D
:100810000C00C0F30900834211D91B1AA3610FD049
:10082000730407D52E6836F822303B4043EA0903AB
:1008300026F8223094F82420012A47D052E1A16101
:10084000607810B1012813D01AE02868B0F8503051
:10085000184400EB0210B0F80424C2F30902A0F817
:100860000424B0F8042442F40042A0F8042407E071
:100870002868B0F85030184400EB0210A0F80414B7
:100880006278286812B1012A11D018E0B0F850102F
:100890000844217800EB0110B0F80C14C1F30901F1
:1008A000A0F80C14B0F80C1441F4004105E0B0F8C5
:1008B00050201044227800EB0210A0F80C1421788C
:1008C0002846FFF7AAFE700472D40BE16269024465
:1008D0006261E2690244E2612369226A9A4203D3B7
:1008E0001846111A04E03EE084F824100AB11046BC
:1008F0002162617811B1012929D031E02968B1F86C
:1009000050201144227801EB0211B1F80424C2F303
:100910000902A1F8042401F204413E2807D9420942
:10092000C30600D1521E0B884BEA822207E048B171
:100930004208C30700D0521C0B880EEA82221343E0
:100940000B800DE00A8842F400420A8008E0296822
:10095000B1F850201144227801EB0211A1F80404EF
:1009600083B22289BAE04FF0060808EBC208E044DF
:100970000AEB480C30F80C00C0F30900834211D395
:100980001B1AA3610FD0730407D42E6836F82230E7
:100990003B4043EA090326F8223094F82420012A38
:1009A00051D09FE0A161607818B1012814D01BE0FC
:1009B0003FE02868B0F85030184400EB0210B0F85F
:1009C0000424C2F30902A0F80424B0F8042442F479
:1009D0000042A0F8042407E02868B0F8503018441A
:1009E00000EB0210A0F804146278286812B1012A02
:1009F00011D018E0B0F850100844217800EB011035
:100A0000B0F80C14C1F30901A0F80C14B0F80C14E0
:100A100041F4004105E0B0F850201044227800EB8A
:100A20000210A0F80C1421782846FFF7F6FD700498
:100A300058D42278296831F82200384040EA090069
:100A400021F822004EE0626902446261E2690244D8
:100A5000E2612369226A9A4203D31846111A21627D
:100A600004E00AB11046216284F8241062782968F3
:100A700012B1012A28D02FE0B1F850201144227879
:100A800001EB0211B1F80C24C2F30902A1F80C2405
:100A900001F20C413E2807D94209C30600D1521E7B
:100AA0000B884BEA822207E048B14208C30700D016
:100AB000521C0B880EEA822213430B800CE00A883A
:100AC00042F400420A8007E0B1F850201144227835
:100AD00001EB0211A1F80C04628983B261692868F4
:100AE00002F004FD2278296831F8220048F6BF732D
:100AF000184080F0300048F28003184321F82200AB
:100B00000020BDE8F09F01F0070101EB810100EB3F
:100B1000C100D0F8840170472DE9F04104460F066A
:100B200001F0070000EB800104EBC1014FF001066A
:100B30004FF0000503D581F82960283103E081F8E2
:100B4000695101F5B471022B08700A61CB7000D1B4
:100B50000D7194F8A802012809D084F8A8622068D1
:100B600001F0DFFF284684F8A852BDE8F08102209A
:100B7000FBE710B501F0070404EB840100EBC101B1
:100B8000C1E95F230022C1F8842181F8692181F83D
:100B90006841006801F5B47102F005FA002010BD4B
:100BA00070B504460D4601F007006168884201D91E
:100BB000012070BD29064FF000064FF0010207D555
:100BC00000EB800104EBC10181F82920283107E006
:100BD00005EB850104EBC10181F8696101F5B47190
:100BE0008A70087094F8A802012807D084F8A82217
:100BF000206802F0BFF9680702D006E0022070BD4D
:100C000004F52C71206802F077F984F8A8620020BE
:100C100070BD10B501F0070404EB840100EBC101C5
:100C2000C1E90F23012281F84C208B6400234B641F
:100C300081F8292001F8284F006802F0B4F900205B
:100C400010BD00001FB50446006802F02DFC010431
:100C500003D5204600F0CCFC1FBD41050DD5206812
:100C600030F8441F21F480610180204600F010F923
:100C70000021204600F027F91FBD410405D520685A
:100C800030F8441F21F4804174E0810405D52068C8
:100C900030F8441F21F400516CE0C10414D52068E1
:100CA00030F8401F21F004010180206830F8401F17
:100CB00021F008010180204600F0FDF8206830F89E
:100CC000441F21F4805155E0010540D5D4F800209F
:100CD0000020694632F8203021F81030401CC0B2A4
:100CE0000828F7D332F8400F40F001001080206848
:100CF00030F8402F22F0010202802068B0F8442032
:100D00005205FBD530F8442F22F480620280002087
:100D1000236831F8102023F82020401CC0B2082896
:100D2000F6D3206830F8401F41F0080101802068A8
:100D300030F8441F21F400610180206830F8401F22
:100D400041F004010180204600F0F2F81FBD81054A
:100D500009D5206830F8441F21F400710180204635
:100D600000F0ADF81FBDC005FCD5206830F8441F69
:100D700021F4807101801FBD2DE9F04186B004008F
:100D800004D094F8A902002520B108E0012006B0A3
:100D9000BDE8F08184F8A852204600F05BF80320FB
:100DA00084F8A902206802F0A0F804F110011422CE
:100DB00088466846FFF7B8F994E80F0001F0FFFF96
:100DC0000227D0BB0021206802F088FB002001260A
:100DD0000EE000BF00EB800104EBC10181F8296047
:100DE00001F8280F401CCD700D614D61C0B28D61BE
:100DF00061688142EED8002012E000BF00EB800164
:100E000004EBC10181F8695181F8680181F86B51E7
:100E1000C1F87851C1F87C51401CC0B2C1F8805172
:100E200061688142EAD8142241466846FFF77CF99E
:100E300094E80F0002F050F810B184F8A972A5E709
:100E400084F8245084F8A962206802F043F8002056
:100E50009DE7000008B500680B49884212D10B4895
:100E6000C16941F40001C161C069002200F40000C1
:100E7000009011461420FFF77FFBBDE808401420C6
:100E8000FFF76CBB08BD0000005C00400010024092
:100E900070B5044680680125022801D0FFF707FAE3
:100EA0002946D4F8EC0201F018FCD4F8EC02BDE8B5
:100EB000704001F0D4BBD0F8EC0201F0F8BBD0F8E0
:100EC000EC0201F0FEBB10B5044690F8A802012820
:100ED0000BD0012084F8A80284F82410206802F0C6
:100EE000FFFA002084F8A80210BD022010BDD0F83F
:100EF000EC2200F52C71104601F0FBBB10B5044646
:100F000090F8A802012810D0012084F8A8022068D7
:100F100002F0BAFA01212046FFF77EFB206801F0BB
:100F2000D7FF002084F8A80210BD022010BD0000E9
:100F300010B50446D0F8EC0201F01AFCA0690028B4
:100F400004D00348016841F00601016010BD0000B3
:100F500010ED00E02DE9F84305460078354CC00758
:100F600054D0E0690026C00008D4E06940F0805009
:100F7000E061E069012600F0805000902E48016891
:100F8000C90512D40168804641F480710160FFF701
:100F900087FA074605E000BFFFF782FAC01B642806
:100FA00023D8D8F80000C005F6D5206A10F44070A8
:100FB00021D0A98801F4407181421CD0206A1F49C8
:100FC000012220F440700A6000220A602062C007FB
:100FD00011D0FFF765FA074641F2883808E000BFF4
:100FE000FFF75EFAC11B414502D90320BDE8F88333
:100FF000206A8007F4D5206A696820F440700843AD
:1010000020621EB1E06920F08050E06128788007FE
:1010100005D56068A96820F44040084360602878DE
:10102000C00605D56068E96820F480000843606068
:101030000020DBE700100240007000404004424204
:101040002DE9F0470F46050061D0434E306800F0AF
:101050000700B84209D2306820F0070038433060FA
:10106000306800F00700B84251D128683B4C810736
:1010700012D5400703D5606840F4E06060602878CE
:10108000000703D5606840F4605060606068A9683C
:1010900020F0F000084360602878C00728D0686816
:1010A000012810D02168022810D0890700292EDAE3
:1010B000616821F0030101436160FFF7F1F98046A7
:1010C00041F288390DE021688903EFE78901EDE7F6
:1010D000FFF7E6F9A0EB0801494502D90320BDE876
:1010E000F0876068696800F00C00B0EB810FEFD109
:1010F000306800F00700B8420BD9306820F00700D4
:1011000038433060306800F00700B84201D0012059
:10111000E5E72878400705D56068E96820F4E060D5
:10112000084360602878000706D56068296920F4C4
:10113000605040EAC100606000F018F86168084A39
:10114000C1F30311515CC8400649086006480068B5
:10115000FFF7C6F90020C2E700200240001002405D
:101160005A36000830010020280100200E4A51683C
:101170000E4801F00C03042B11D0082B0FD10C48A2
:10118000C1F38343C903C05C0AD55168084AC1F35F
:101190004041921E515C054A5043B0FBF1F070474C
:1011A00004494843704700000010024000127A00D2
:1011B0004A36000800093D002DE9F84F040070D0C0
:1011C0002078C04DC00749D06868C0F3810001286D
:1011D00007D06868C0F38100022809D16868C0039D
:1011E00006D52868800339D560680028E7D035E047
:1011F0006068B0F5803F0BD010B1B0F5A02F11D0D2
:10120000286820F480302860286820F4802002E0DC
:10121000286840F480302860606890B1FFF740F99A
:1012200006460AE0286840F480202860F0E700BF06
:10123000FFF736F9801B642873D828688003F7D538
:101240000CE0FFF72DF9064605E000BFFFF728F98F
:10125000801B6428F0D828688003F7D420789A4E41
:1012600080074FF001094FF0000839D5686810F089
:101270000C0F07D06868C0F38100022809D16868A4
:10128000C00306D42868800714D52069012808D136
:1012900010E02069B0B1C6F80090FFF701F90746E9
:1012A00005E00AE1FFF7FCF8C01B0228C4D8286853
:1012B0008007F7D52868616920F0F80040EAC1008E
:1012C00028600DE0C6F80080FFF7EAF8074604E062
:1012D000FFF7E6F8C01B022823D828688007F7D458
:1012E000207800072CD57948A169D9B1C0F80090C1
:1012F000FFF7D6F8074604E0FFF7D2F8C01B022834
:101300000FD8686A8007F7D571484FF4FA51006822
:10131000B0FBF1F0009000BF0098411E0091FAD29E
:101320000EE080E0C0F80080FFF7BAF8074604E05E
:10133000FFF7B6F8C01B022875D8686A8007F7D493
:101340002078400760D5E8690027C00008D4E86924
:1013500040F08050E861E869012700F0805000907B
:101360005C480168C90513D40168834641F4807163
:101370000160FFF795F8824606E000BFFFF790F89E
:10138000A0EB0A0064284ED8DBF80000C005F5D5B4
:10139000E06801280AD008B1052813D0286A20F097
:1013A00001002862286A20F0040002E0286A40F068
:1013B00001002862E06841F2883B98B1FFF770F8BD
:1013C00082460BE0286A40F004002862EEE700BF86
:1013D000FFF766F8A0EB0A0159455AD8286A80073A
:1013E000F6D50CE0FFF75CF8824605E0FFF758F809
:1013F000A0EB0A0159454CD8286A8007F6D41FB1E2
:10140000E86920F08050E861E06988B36968C1F359
:101410008101022944D00228C6F8608004D0FFF779
:101420003FF8044638E034E0FFF73AF8074604E0B6
:10143000FFF736F8C01B02282BD828688001F7D4A4
:10144000206AB0F5803F05D16868A16820F40030BB
:1014500008436860D4E908010843696821F47411FD
:1014600008436860C6F86090FFF71AF8044606E083
:1014700025E000BFFFF714F8001B022809D82868F0
:101480008001F7D51BE000BFFFF70AF8001B022818
:1014900002D90320BDE8F88F28688001F4D40EE05B
:1014A0000128F7D06868226A00F48031914204D1A3
:1014B000616A00F47010884201D00120EAE7002040
:1014C000E8E700000010024000004242800442426F
:1014D000300100200070004010B5401EB0F1807F48
:1014E00001D3012010BD4FF0E02460610F2160178F
:1014F00002F070F80020A06107202061002010BDDC
:10150000FEE70000F0B500230A24302537261F46E9
:1015100011E000BFB4EB107F02D905EB107C01E0B5
:1015200006EB107C01F813C001EB430C00015B1CBF
:101530008CF80170DBB29342ECD3F0BD30B585B0CE
:10154000002418480094019402940394816941F0A6
:1015500010018161816901F010010491816941F0FC
:1015600020018161816901F020010491816941F0CC
:101570000401816180690C4D00F004000490002298
:1015800038212846FEF786FF382000900120CDE95B
:1015900001040220039069462846FEF78BFE05B041
:1015A00030BD0000001002400008014010B50022CC
:1015B0000B490C4800F010FF08B1FEF778FE0A490D
:1015C000084801F0FBF808B1FEF771FE054801F08C
:1015D0004BF9002803D0BDE81040FEF768BE10BDEF
:1015E000140000206C0C0020C4020020FEE7FEE77F
:1015F0002DE9F84F044640F68F7B48F60F794FF4FB
:1016000080684FF0000AC0E1B0F8441011F00F05F7
:1016100039D030F8256031047ED530F8251001EA44
:101620000B0141F0800120F8251005EB850004EB4B
:10163000C00797F8740107F5B47700286DD0F878E3
:1016400002286BD03978226832F8210048F68F736F
:10165000184048F2C003184322F821003978206866
:1016600030F82120B0F8503052047DD5022202EB30
:10167000C1015A1808EB4201415A8905890D0091B0
:1016800073D03A89DFE0C9062DD4018801EA090147
:1016900041F400410180206804F12805B0F8503081
:1016A0002978022202EBC1015A1808EB4201405A84
:1016B000C0F309006064E16B0844E0630021204648
:1016C000FEF7ABFF94F8240000289CD0A8690028FE
:1016D00099D194F82400216840F08000A1F84C00D2
:1016E00084F824A051E1018804F5B4750A0521D5D8
:1016F000B0F850202B78062101EBC3010A4408EB17
:101700004201405A04F52C71C0F30903EB61EA88E9
:10171000206801F0CDFE02E0B0E070E080E02068DB
:10172000018801EA0B0141F0800101802046FFF7AA
:10173000DEFB2AE10904D5D5018801EA0B0141F05D
:10174000800101802068B0F850202B78062101EB41
:10175000C3010A4408EB4201405A83059B0DEB612B
:1017600010D0696971B101E061E05FE0EA8820684A
:1017700001F09EFEE969686908446861002120461D
:10178000FEF754FF216808880205ABD4C0F301308E
:101790000328A7D0B1F850000844B0F80C14C1F3E6
:1017A0000901A0F80C142A6900F20C403E2A09D95C
:1017B0005109D20600D1491E02884FF4004343EA82
:1017C000812109E0B2B15108D20700D0491C02883A
:1017D0004FF6FF7303EA81210A43028021680888DB
:1017E0004BF68F72104080F4405048F28002104354
:1017F0000880CAE0018841F400410180EEE72068DA
:10180000B0F850203B78062101EBC3010A4408EBF5
:101810004201415A8905890D009118D0FA8812E0D9
:10182000324639462046FEF75FFF00900FE0062261
:1018300002EBC1015A1808EB4201415A8905890D92
:10184000009104D07A897969009B01F031FEF86932
:1018500000990844F8617969009808447861B8698A
:1018600018B139690098814204D939782046FEF7C9
:10187000DDFE03E03946206801F095FB30062FD5E8
:1018800005EB850004EBC001206830F8252002EA52
:10189000090242F4004220F8252091F82B0028315B
:1018A00001281ED0F0056CD42068B0F850300D78B7
:1018B000022202EBC5021A4408EB4202805A8A69EE
:1018C000C0F30900824255D9121A8A6154D04A697C
:1018D00002444A61CA691044C861206801F063FB90
:1018E00053E0C1F818A0087B524608B3700620D513
:1018F000487810B1012812D03AE02068B0F85020A2
:1019000010440A7800EB0210B0F80424C2F3090274
:10191000A0F80424B0F8042442F4004206E0206851
:10192000B0F8503018440B7800EB0310A0F80424F2
:101930001EE04B78206813B1012B11D018E0B0F8ED
:10194000502010440A7800EB0210B0F80C24C2F3C7
:101950000902A0F80C24B0F80C2442F4004205E07F
:10196000B0F8503018440B7800EB0310A0F80C24AA
:10197000097802E0C1F818A0E9B22046FEF74DFE52
:1019800003E032462046FEF722FF2068B0F84410FC
:1019900009043FF539AE0020BDE8F88F7047704765
:1019A00070B50C46054622462946034800F016FB52
:1019B0000028F8D170BD00006C0C0020FEF776BD49
:1019C00030B593B028216846FEF7C7FB14210AA85A
:1019D000FEF7C3FB002401200F941094119401041E
:1019E00012948DE8130004904FF4E010CDE9081034
:1019F000022507956846FFF7DFFB08B172B6FEE7E0
:101A00000F20CDE90A054FF48060CDE90C4002219A
:101A10000AA80E94FFF714FB08B172B6FEE7102077
:101A20000F9012940FA8FFF795FA002801D072B614
:101A3000FEE713B030BD70472DE9F041104DD0F8EE
:101A4000C042D0F8B822CAB101EB810300EB830297
:101A50000026D7693FB104EBC3039B6BB7FBF3F4DC
:101A600003FB147323B1C5F814620020BDE8F081B4
:101A70000023D6611A4600F084FEF6E70220F5E75F
:101A80003C14002070B50546094C00F070FDC4F808
:101A90000C02D5F8B80248B1D5F8BC12D4F804024B
:101AA000CA6804F503719047002070BD022070BD24
:101AB0003C14002070B504460026812100F0AAFCE9
:101AC000002501212046E56200F0A4FC8221204689
:101AD000C4F86C5100F09EFC2564D4F8B80228B11B
:101AE000D4F8BC0240688047C4F8B852304670BD94
:101AF00010B5094CD0F8BC1259B194F80002FF2877
:101B000007D08B6894F8012221469847FF2084F87B
:101B10000002002010BD00003C1400200A210180BA
:101B2000004870473401002043210180004870477D
:101B300084010020432101800048704740010020BB
:101B40004321018000487047C80100202DE9F04181
:101B500004460027007C4FF40076012590B3402313
:101B600002228121204600F065FD4023E562022229
:101B70000121204600F05EFD082303228221204639
:101B8000C4F86C5100F056FD4FF4077113482564FA
:101B9000FEF7E3FA114DC4F8B852D4F8BC0200685D
:101BA00080470020C5F81402C5F81802207CD5F83B
:101BB000042288B140230121204600F047FD384629
:101BC000BDE8F081FFE7334602228121204600F084
:101BD00031FD3346E562CAE73346ECE73C140020AA
:101BE00010B5D0F8B81269B1074A017CD2F80422C6
:101BF00029B14023012100F029FD002010BD4FF440
:101C00000073F7E7022010BD3C1400200248C0F822
:101C100004120020704700003C1400200348C0F864
:101C20001022C0F808120020704700003C14002069
:101C30002DE9FC41064600208DF80000ADF80400B7
:101C4000054608780C46254F10F0600121D0202968
:101C50003BD1E288AAB10006607807D5D6F8BC125D
:101C60008B6839469847E288394626E087F80002B3
:101C7000A07987F80102E2883946304600F056FA2A
:101C800028E0D6F8BC12607800228B68214698477D
:101C900020E0607820B10A2809D00B2815D110E087
:101CA00096F89C02032810D1022201A905E096F8BB
:101CB0009C02032809D101226946304600F050FAFF
:101CC00008E096F89C02032804D02146304600F034
:101CD00022FA02252846BDE8FC8100003C140020C1
:101CE00010B50C4A012902D0052911D107E012686C
:101CF000C0F8B822084AC0F8BC22084A06E0526878
:101D0000C0F8B822064AC0F8BC22064A5269904779
:101D1000022010BD44020020040000200C0200201C
:101D200014010020000300200C4A012905D00229DB
:101D300003D0042909D0022070471268C0F8B822E5
:101D4000074AC0F8BC22074A06E05268C0F8B82229
:101D5000054AC0F8BC22054A926910474402002097
:101D6000040000200C0200201401002000030020C9
:101D700070B50D4D04460E462868C4F8B8020B48ED
:101D8000C4F8BC020A484268204690476868C4F814
:101D9000B8020848C4F8BC020748314642682046E9
:101DA0009047002070BD0000440200200400002085
:101DB0000C020020140100200003002001490969E1
:101DC000084700000C0200206B210180004870478A
:101DD0004C0200200A21018000487047B702002011
:101DE0002DE9F04104460E48C4F8BC020D480E46E9
:101DF0000268204690470C4D0746D4F8B802286088
:101E00000A48C4F8BC020A48314602682046904796
:101E10003844D4F8B812C0B26960BDE8F08100005F
:101E2000040000200C0200204402002014010020C5
:101E3000000300202DE9F0410A78204D02F0030E46
:101E4000204A224B00261E4FDFF87CC02C689B687E
:101E50009268BEF1010F03D0BEF1020F1FD10BE05B
:101E6000B1F804E0BEF1000F1CD0BEF1010F19D093
:101E7000BEF1020F13D11AE0B1F804E0BEF1810FF8
:101E800010D006DCBEF1010F0CD0BEF1040F06D15C
:101E90000DE0BEF1820F05D0BEF1850F07D03046B0
:101EA000BDE8F081C0E9AE47BDE8F04110476A687F
:101EB000C0E9AE2CBDE8F041184700004402002004
:101EC000040000200C020020140100200003002068
:101ED000D0F8B802002101750846704770B5054674
:101EE000074CD5F8BC226178D2682078904702234D
:101EF00022460421284600F0A9FB002070BD000006
:101F00005816002070B50446852100F083FA00259C
:101F100004212046E56700F07DFAC4F8A851D4F802
:101F2000B80228B1D4F8BC0280688047C4F8B8521F
:101F3000002070BD10B5074C02462069012807D16A
:101F4000D2F8BC2261782078D268904700202061C6
:101F5000002010BD581600200A210180004870475B
:101F6000C803002029210180004870473803002061
:101F70002921018000487047640300202921018045
:101F8000004870479003002070B5044600260D23DA
:101F90000322852100F04EFB01250D23032204219D
:101FA0002046E56700F046FB18210B48C4F8A8510D
:101FB000FEF7D3F8084D0020C4F8B8522875D4F8BD
:101FC000BC024068804702232A460421204600F0D4
:101FD0003DFB304670BD00005816002010B513467A
:101FE00090F89C42074A032C09D1147D0CB10120C2
:101FF00010BD012414750A46852100F0C2FB0020A3
:1020000010BD000058160020F8B50022ADF80020E1
:102010000E78334B1546144616F0600621D0202E5C
:1020200055D14A78921E0A2A51D2DFE802F00F08F1
:102030005050505050130B05887858604AE00122E8
:10204000191D35E04888000A986043E0012203F139
:1020500008012DE001221A61CA88194600F066F8CD
:1020600038E04E7836B1062E0BD00A2E23D00B2E38
:102070002DD128E090F89C22032A28D1022269461B
:1020800016E04B882226B6EB132F07D1CA88B02A58
:1020900000D9B022D0F8BC120D6808E02126B6EBBA
:1020A000132F04D1CA880F4D092A00D909222946C5
:1020B00000F056F80EE090F89C22032A07D1012286
:1020C00003F10C01F4E790F89C22032A04D000F0FD
:1020D00022F802242046F8BD8878D860FAE700008C
:1020E00058160020BC03002010B5D0F8B422526866
:1020F0009047002010BD134610B50A46002100F09D
:10210000A5FA002010BD134610B50A46002100F0C4
:1021100038FB002010BD10B50446802100F016FBEE
:102120002046BDE81040002100F010BB10B503238D
:10213000C0F85C21C0F89432C0F8602113460A460A
:10214000002100F083FA002010BD10B50521002306
:10215000C0F894121A46194600F078FA002010BD13
:1021600010B50223C261C0F89432026213460A46D7
:10217000002100F006FB002010BD10B50421002353
:10218000C0F894121A46194600F0FBFA002010BD60
:1021900010B50A46024903A000F0EEF8004810BD51
:1021A000300F0020436F6D706F7369746520434476
:1021B000432048494420436F6E6669670000000071
:1021C00012200880004870473400002010B50A46ED
:1021D000024903A000F0D0F8004810BD300F0020E5
:1021E000436F6D706F7369746520434443204849A1
:1021F0004420496E7465726661636500042008803E
:10220000004870473000002010B50A46024903A07C
:1022100000F0B2F8004810BD300F0020436F6E5838
:1022200069616F4A697547756100000010B50A461B
:10223000024903A000F0A0F8004810BD300F0020B4
:1022400043584A4720436F6D706F7369746520442B
:10225000657669636500000010B51A2008800A4899
:102260000168001D0468001D0068081809D00822D4
:102270000649FFF747F90549042210312046FFF7C8
:1022800041F90248801E10BDE8F7FF1F4A000020F8
:10229000F8B504460020ADF8000048880D46010A54
:1022A000082948D2DFE801F04704091747473C45B1
:1022B000D4F8B012207C0A6819E0207C022600289D
:1022C000D4F8B40205D0C16A684688470146467012
:1022D0003EE0816AF8E7C0B206282CD2DFE800F0C1
:1022E000030A1014181CD4F8B002426805E06946CD
:1022F00090471CE0D4F8B0028268E2B1207CF6E797
:10230000D4F8B002C268F8E7D4F8B0020269F4E782
:10231000D4F8B0024269F0E7D4F8B0028269ECE781
:10232000207C40B9D4F8B402416B68468847014626
:102330000EE0207C20B129462046FFF7ECFEF8BDD8
:10234000D4F8B402016B68468847014607204870FC
:10235000BDF8000048B1EA8852B1824200D9024675
:10236000ADF800202046FFF7FBFEE8880028E6D104
:102370002046FFF702FFF8BD70B5002300281ED0ED
:102380000446002502E06D1CEDB2641C2678002E88
:10239000F9D1022404EB450414801278CA545B1C62
:1023A0000322CA5400245B1C06E0CA545B1CDAB248
:1023B0008C54521CD3B2401C0278002AF5D170BD57
:1023C00001004FF0000004D0012901D0022901D002
:1023D000022070470120704710B580B1D0F8B432A8
:1023E00013B10023C0F8B43209B1C0F8B012012112
:1023F00080F89C12027000F0BFF8002010BD02208F
:1024000010BD10B5D0F8C002FEF740F9BDE810408D
:10241000FFF7D6BF10B5D0F8C002FEF711F9BDE83E
:102420001040FFF7CDBF2DE9F0411746044651B1EA
:10243000D4F8B40242691AB194F89C02032851D02E
:102440000220BDE8F081D4F89432002504F1140094
:10245000022B03D0042B3AD0C3B33CE0D0E9036392
:102460009E4207D9F11AC1608AB239462046FFF769
:102470004AFE12E08068B0FBF3F103FB110199B949
:10248000984211D3D4F8981288420DD200221146F6
:102490002046FFF738FEC4F8985200231A46194622
:1024A000204600F0D3F816E0D4F8B402C16829B190
:1024B00094F89C02032801D12046884780212046B9
:1024C00000F044F92046FFF740FE04E0FFE78021DA
:1024D000204600F03BF994F8A002012804D184F8CA
:1024E000A05201E0204690470020AAE770B51546AB
:1024F000044649B1D4F8B40282691AB194F89C0236
:10250000032830D0022070BDD4F8941204F5AA70CC
:10251000032902D005291ED027E0D0E903218A42F1
:102520000BD9531AC3600846834200D303469AB2BC
:1025300029462046FFF7DFFD17E0D4F8B402016911
:1025400029B194F89C02032801D1204688472046EF
:10255000FFF713FE09E000200146C4F8940220466C
:1025600000F0F4F801E020469047002070BDD0F85C
:10257000C002FEF7C8BA000010B50446234824493B
:10258000C0F8EC42C4F8C002016008214160022199
:10259000816000218161C1610162FEF7EDFB08B13C
:1025A000FDF785FE0022D4F8C0021823114604F579
:1025B0003074FEF713F85823002280212068FEF7BC
:1025C0000DF8C023002281212068FEF707F84FF4A0
:1025D0008873002201212068FEF700F84FF4807311
:1025E000002282212068FDF7F9FF4FF4A07300223A
:1025F00085212068FDF7F2FF4FF4C073002204210B
:102600002068FDF7EBFF002010BD00004C110020FA
:10261000005C00400A0601F07F01D0F8C00201EB27
:10262000810100EBC10002D590F82A00704790F8B4
:102630006A01704710B51C461346D0F8C002224606
:10264000FEF76AFABDE81040FFF7BABE10B5D0F841
:10265000C002FEF78EFABDE81040FFF7B1BE70B5BC
:102660000022044640231146FFF7E4FF40260125DF
:10267000C4F864613346002280212046C4F85851D2
:10268000FFF7D8FF6662A56184F89C520020C4F869
:1026900094026060C4F8A402D4F8B80228B1D4F857
:1026A000B4020021426820469047002070BD90F897
:1026B0009C12042903D190F89D1280F89C120020EE
:1026C000704710B590F89C12032904D1D0F8B412C9
:1026D000C96901B18847002010BD0174002070470E
:1026E00010B5D0F8C002FEF7EEFBBDE81040FFF7D2
:1026F00067BE70B5044600F52A70054600F04AF83A
:102700000120C4F89402B4F8AE02C4F8980294F818
:10271000A80210F01F010AD001290DD0022910D003
:1027200000F08001204600F011F8002070BD29461D
:10273000204600F09EF8F8E72946204600F0CAF946
:10274000F3E72946204600F01DF9EEE710B5D0F872
:10275000C002FEF725FABDE81040FFF731BE10B504
:10276000D0F8C002FEF7CAFBBDE81040FFF728BE54
:1027700090F89C1280F89D12042180F89C12002091
:10278000704710B5D0F8C002FEF743FABDE810401C
:10279000FFF716BE0A7802704A7842708A78CB78C2
:1027A00002EB032242800A794B7902EB03228280FA
:1027B0008A79C97902EB0121C18070470246002065
:1027C00011B1C2F8B41270470220704710B5D0F8AA
:1027D000B42202241AB11268904700B9002420469E
:1027E00010BD000070B50E461E4D89780446297054
:1027F000012931D894F89C0202280BD003280FD06D
:1028000031462046FFF787FC29782046BDE8704016
:10281000FFF76ABCD9B10320616084F89C0209E02B
:1028200071B16068884212D0C1B22046FFF75CFCEB
:10283000297861602046FFF7C9FF02280CD006E026
:10284000022084F89C0220466160FFF74DFC204680
:10285000BDE87040FFF791BC31462046BDE87040AE
:10286000FFF759BCFC02002010B5FFF778FF0020ED
:1028700010BD2DE9F0410A78002612F0600208D060
:10288000202A01D0402A70D1D0F8B4229268904713
:102890006DE04B78002201250A2B66D2DFE803F0B9
:1028A000405D6557650805652C29FFF7F1FC5EE082
:1028B00004468888D8B9C888C8B94888802816D2FC
:1028C00000F07F0794F89C02032810D084F89E72D1
:1028D00039462046FFF704FF2046FFF74EFC1FB1A4
:1028E000022084F89C0242E084F89C523FE020469B
:1028F0003BE0FFF777FF3AE0CB88012B35D190F82A
:102900009C32012B04D0022B02D0032B2DD104E0EA
:102910008260012200F1080116E00122011D13E08E
:1029200090F89C22012A03D0022A01D0032A1CD14C
:10293000CA88022A19D1C560D0F8A41209B10321AE
:10294000C160022200F10C01FFF70AFC0FE0498888
:1029500001290CD1C0F8A45211E090F89C32012B4F
:1029600008D0022B06D0032B04D0FFF7D4FB30464F
:10297000BDE8F08149880129F9D1C0F8A422FFF708
:10298000FCFBF4E72DE9F0410A46044610780027E5
:10299000097910F060030AD0202B01D0402B50D1D0
:1029A000D4F8B40211468368204698478FE0C0F3FC
:1029B0004110012806D05078D0B301282AD003282E
:1029C0003FD107E0D4F8B402114683682046BDE841
:1029D000F041184794F89C02022802D0032872D1D3
:1029E0000AE071B380296ED02046FFF7AFFE802148
:1029F0002046FFF7ABFE6AE0508838B931B1802934
:102A000004D0D08810B92046FFF7A0FE2046FFF77B
:102A1000B4FB5CE094F89C020228E2D0032852D177
:102A2000508898BB4806F1D02046FFF7EAFCEDE756
:102A3000FFE794F89C020026022803D0032842D125
:102A400012E040E009B180293DD1080601F07F0085
:102A500000EB800004EB800101D5143101E001F5A9
:102A6000AA7102220E602AE0080601F00F0000EBB6
:102A7000800004EB80000AD5806920B301F07F005C
:102A800000EB800004EB800514350BE01FE0D0F86C
:102A90005801C0B101F07F0000EB800004EB80051D
:102AA00005F5AA7541B1802906D02046FFF7B2FD91
:102AB00010B10120286000E02E6002222946204645
:102AC000FFF74EFB03E011462046FFF724FB384694
:102AD000BDE8F08170B5054608780C4610F060003E
:102AE00003D0202801D0402816D195F89C02012857
:102AF00003D0022801D003280ED1207903280BD857
:102B0000D5F8B402826828469047E188014306D18F
:102B10002846FFF732FB02E02846FFF7FCFA0020C8
:102B200070BD2DE9F0470C78002630F8243048F6C7
:102B30008F121340CA78002A78D0012A7CD0022A4A
:102B400002D0032A75D0012648F28002134320F8F0
:102B500024300D7830F8253048F68F7423402B430D
:102B6000134320F825300D7B48F2C00948F6BF73A7
:102B70004CF2800A4BF68F77EDB3CD7891F800C018
:102B8000022D30F82C507DD048F68F6805EA0805F4
:102B9000154320F82C50B0F8505091F800C005446F
:102BA00005EB0C15B1F808C02CF0010CA5F800C419
:102BB000B0F8505091F800C0054405EB0C15B1F881
:102BC0000AC02CF0010CA5F808C44D78002D7ED069
:102BD0000D7830F825C05FEA4C4C07D530F825C099
:102BE0000CEA040C4CEA0A0C20F825C091F800C04D
:102BF00030F82C5000E022E06D0606D530F82C505D
:102C0000254045EA090520F82C50CC780D78012C98
:102C100030F8254004EA03047CD084F020031343F9
:102C200020F82530C1E001E006E002E043F4007343
:102C30008AE743F4C06387E743F4806384E74D7811
:102C40004DB3B0F850500F78054405EB0715CF8809
:102C500027F00107A5F800740F7830F827506D06AB
:102C600006D530F82750254045EA090520F82750B9
:102C7000CC78012C07D00C7830F82410194081F062
:102C8000200104E064E00C7830F82410194011436E
:102C900020F8241090E0B0F850300D78034403EB96
:102CA0000513CD8825F00105A3F80854B0F850307D
:102CB0000D78034403EB0513B3F80C54C5F3090571
:102CC000A3F80C540D6903F20C433E2D00E045E0DF
:102CD0000BD94FEA551CED0601D1ACF1010C1D8852
:102CE0004FF4004848EA8C2C0BE035B34FEA550C02
:102CF000ED0701D00CF1010C1D884FF6FF7808EAB2
:102D00008C2C45EA0C051D800D7830F825305B04CD
:102D100008D500E046E030F82530234043EA0A03B6
:102D200020F82530097861B130F821303B4083F438
:102D30000053134320F821303EE01D8845F4004540
:102D4000E1E70188394081F440511143018033E0CB
:102D5000254048F2801845EA08051AE791F800C0B6
:102D600030F82C506D0406D530F82C50254045EA3B
:102D70000A0520F82C5091F800C030F82C506D0650
:102D800006D530F82C50254045EA090520F82C508E
:102D90000D7830F825403C4084F44054144320F82A
:102DA000254070E7144320F825400B7830F82310B5
:102DB0003940114320F823103046BDE8F087002049
:102DC00070472DE9F04391F80C804F780A7848F667
:102DD000BF7C4BF68F7948F2800348F2C0054CF275
:102DE000800648F68F74B8F1000F28D0002F30F815
:102DF00022704FEA474748D0002F05DA30F822709A
:102E00002740374320F822700A7830F822707F0676
:102E100005D530F8227027402F4320F822700D7816
:102E200030F825202240324320F825200C7830F855
:102E3000242002EA0C021A4320F824201AE07FB171
:102E400030F82260760605D530F8226026402E4301
:102E500020F822600A7830F8221001EA0C010EE016
:102E600030F822506D0405D530F822502540354306
:102E700020F822500A7830F8221001EA090119439B
:102E800020F822100020BDE8F083002F05DA30F88A
:102E900022702740374320F822700A7830F82260E9
:102EA000760605D530F8226026402E4320F82260B1
:102EB0000E7830F8262022402A4320F826200C786D
:102EC00030F8242002EA09021A4320F82420C1E73E
:102ED0000020704700207047012120F8401F00218A
:102EE0000180818001820846704730F8401F21F43C
:102EF0003F410180002070470020704730B50A7BB9
:102F0000B2BB4A7848F68F7548F28004C2B10B789C
:102F100030F82320520607D530F823202A4048F203
:102F2000C0052A4320F82320CA78012A20D00A7835
:102F300030F8221048F6BF73194081F0200114E0E8
:102F40000A7830F822305B0407D530F822302B4065
:102F50004CF280052B4320F822300A7830F82210FA
:102F60004BF68F73194081F44051214320F8221011
:102F7000002030BD10B54A780978002A48F2800355
:102F800030F8212005D048F6BF74224082F01002AC
:102F900004E04BF68F74224082F480521A4320F8EA
:102FA0002120002010BD2DE9F0470D464B78097B0C
:102FB00004464FF0000948F68F7248F2800A4FF439
:102FC00000474FF6FF78012B09D000296FD0E87831
:102FD00002286DD001286CD00120BDE8F087AE69D1
:102FE0002869864200D9064691B1E97802291ED0A7
:102FF000286A801B2862287834F820104906B4F823
:103000005010214401EB001073D5A0F80C6416E1B8
:10301000B3B2EA882046696900F068FAB4F8500053
:103020002978204400EB0110A0F804640DE1296A1E
:10303000814277D9297834F82100104048F2801273
:10304000104324F82100286A801B2862287834F86D
:1030500020104906697871D511B101292AD030E0D4
:10306000B4F85010214401EB0010B0F80C14C1F377
:103070000901A0F80C1400F20C403E2E07D971098A
:10308000F20600D1491E028847EA812107E04EB1CD
:103090007108F20700D0491C028808EA81210A431E
:1030A00002800EE0018841F40041018009E0F1E076
:1030B00020E195E1B4F85020111901EB0010A0F8BF
:1030C0000C646A89B3B22046696900F00FFA686936
:1030D000304468612969286A884202D9801B2862C5
:1030E00002E00646C5F82090687818B101282BD078
:1030F00032E02FE0B4F850002978204400EB0110B2
:10310000B0F80414C1F30901A0F8041400F204405B
:103110003E2E08D97109F20600D1491E028847EAFD
:10312000812108E0A1E056B17108F20700D0491CE6
:10313000028808EA81210A4302800DE00EE001883E
:1031400041F40041018007E0B4F8500029782044A0
:1031500000EB0110A0F804642A8971E011B1012983
:1031600027D02DE0B4F85010214401EB0010B0F846
:103170000414C1F30901A0F8041400F204403E2E27
:1031800007D97109F20600D1491E028847EA812158
:1031900007E04EB17108F20700D0491C028808EA26
:1031A00081210A4302800BE0018841F40041018043
:1031B00006E0B4F85010214401EB0010A0F80464BC
:1031C0002A89B3B22046696900F090F968693044F1
:1031D00068612969286A884202D9801B286202E056
:1031E0000646C5F82090687810B1012836D026E050
:1031F000B4F850002978204400EB0110B0F80C140A
:10320000C1F30901A0F80C1400F20C403E2E07D9BE
:103210007109F20600D1491E028847EA812107E0C0
:103220004EB17108F20700D0491C028808EA8121DA
:103230000A43028003E0018841F4004101806A8969
:10324000B3B22046696900F051F9297834F82100B9
:1032500048F6BF72104080F030000FE1B4F8501013
:103260000819297800EB0110CFE62A7834F82200FB
:1032700048F68F63184040EA0A0024F82200B4F8A8
:1032800050002A78204400EB02108BB2A0F80434DE
:103290002A89D6E7A9692869814202D9091AA96150
:1032A00002E00846C5F81890B4F850102A78214476
:1032B00001EB0211B1F80C24C2F30902A1F80C24AD
:1032C00001F20C413E287DD94209C00600D1521EB0
:1032D000088847EA82220AE0088840F4004007E0B4
:1032E0004208C00700D0521C088808EA8222104316
:1032F0000880BBE033BBB4F850002978204400EBD1
:103300000110B0F80414C1F30901A0F804142969EC
:1033100000F204403E2907D94B09C90600D15B1EC3
:10332000018847EA832307E041B14B08C90700D071
:103330005B1C018808EA8323194302E0018841F4F9
:1033400000410180687810B1012828D030E0B4F83D
:1033500050002978204400EB0110B0F80C14C1F3A0
:103360000901A0F80C14296900F20C403E2907D984
:103370004B09C90600D15B1E018847EA832307E099
:1033800041B14B08C90700D05B1C018808EA8323C0
:10339000194302E0018841F40041018008E0B4F8DB
:1033A00050100819297800EB0110298AA0F80C1494
:1033B000E869C0B3297834F82100430401D54306F5
:1033C00005D400E046E044F2400318424ED134F800
:1033D0002100104048F2C002104324F8210045E0CB
:1033E000A9692869814202D9091AA96102E008463F
:1033F000C5F8189013BBB4F850102A78214401EB9B
:103400000211B1F80424C2F30902A1F8042401F264
:1034100004413E2808D94209C30600D1521E0B8838
:1034200047EA822208E021E078B14208C30700D0D1
:10343000521C0B8808EA822213430B80697800290A
:103440003FF42EAF012909D010E00A8842F400426F
:103450000A80F3E700287FF443AF3DE7B4F850203B
:1034600011192A7801EB0211A1F80C04297834F81B
:1034700021004BF68F72104080F4405040EA0A0061
:1034800024F821000020A8E50021A0F844104FF402
:103490003F41A0F840100020704700000148FDF7B0
:1034A000D1BB00004C110020B0F844007047000070
:1034B00010B500EB42005C0800F5806009D000BF49
:1034C00030F8042B01F8012B120A01F8012B641EBD
:1034D000F6D1DA0701D00088087010BD00207047CF
:1034E00011B98021A0F84C100020704710B55B1C6A
:1034F00000EB42005B0800F5806009D011F8012B59
:1035000011F8014B42EA042220F8042B5B1EF5D18E
:1035100010BD2DE9FE434FF00009CDF80090CDF825
:103520000490CDF8089010F8016B4C4601786D4678
:10353000312904D0322907D0332937D10DE00121B8
:103540008DF80010092403E002218DF800100C46CC
:1035500001214FF0300C372704E003218DF80010D3
:103560000524F5E710F8012F402A04D2B2FBFCF342
:103570000CFB132203E0B2FBF7F307FB13226B5C97
:1035800003EB0212D3B26B5410F8012F402A04D27D
:10359000B2FBFCF80CFB182203E0B2FBF7F807FBC8
:1035A00018221A446A54491CA142DBD321462846FA
:1035B000FEF7F6F9302E0AD10120494601E02954E0
:1035C000401CA042FBD321466846FEF7E9F9BDE85E
:1035D000FE83FEE70907090E002804DB00F1E02066
:1035E00080F80014704700F00F0000F1E02080F830
:1035F000141D704702E008C8121F08C1002AFAD142
:1036000070477047002001E001C1121F002AFBD162
:1036100070470000FCF752FFFEF7D2F9FDF78EFF6E
:10362000FDF7C4FF064C002520880028FCD0054883
:10363000FFF76FFF2580C8210248FCF78EFDF3E7F6
:1036400000000020D4030020010202030405060745
:1036500008090A0B0C0D0E0F1010000000000000EE
:103660000000010203040607080900008C36000868
:1036700000000020D40300009401000890380008E6
:10368000D40300209C220000043600084113F501F9
:103690001B08F1041AED041319021408C1211B08B8
:1036A000FD041309221B082D041A59041A91101A3B
:1036B000CD0417040309041201100A02EF020140AD
:1036C000CF070F4F260201020301031A1A0310103D
:1036D00005010906A1018501050719E029E715285B
:1036E0001A250175019508810295017508810395D8
:1036F00005750105081901290591121808039103A0
:1037000095067508261A653011142965811EC005B5
:103710000C0901412A023B481109E909EA09E209B9
:10372000CD09B109B509B609B74B1AC0641A02230D
:103730001A0329111B05094E2A032D3D9503750116
:10374000681C058101225817300931093815812577
:103750007F750895038106C0093C05FF090191208A
:103760000C02B12275069501B101C0641C205D02F6
:10377000F819041A610419DF1182101324F4130AD2
:103780000632022A40181409024313020125C032EE
:1037900009041B01020B1305241610010524011056
:1037A0000901042402020524061701070582030803
:1037B000151009040133020A1D07050102432C07F5
:1037C0000581070938442A40072A8107112B090778
:1037D000440A3B0444134D1B1408B51A1408311C49
:1037E00042081AF10C1A39041A8504C11A35281A2C
:1037F00029041A41041A1D04811409026B130301E0
:10380000158064080B2A0283092E8C113A028C1948
:10381000071B0904061B0301431B2111361B22B0A1
:10382000191485030D2D05070504071B0A0625211C
:1038300043400113E11D1B0871044B351E8C1ABD5A
:103840000C1AE1C41A290801105AC9145AD50813D0
:10385000891F1B0805044B0920101A350C1AD14882
:103860005ADD4C811A71181A65041A7D042A5930E0
:10387000130229199F2BC032E4091AAA31D92C2925
:103880001209442C691A31130A063202334001002E
:04000005080000ED02
:00000001FF
